:020000040800F2
:10000000600600206D0100087501000877010008F6
:10001000790100087B0100087D0100080000000054
:100020000000000000000000000000007F01000848
:10003000810100080000000083010008850100081C
:100040008701000887010008870100088701000870
:100050008701000887010008870100088701000860
:100060008701000887010008870100088701000850
:100070008701000887010008870100088701000840
:100080008701000887010008870100088701000830
:100090008701000887010008870100088701000820
:1000A0008701000887010008870100088701000810
:1000B0008701000887010008870100088701000800
:1000C00087010008870100088701000887010008F0
:1000D00087010008870100088701000887010008E0
:1000E00087010008870100088701000800F002F876
:1000F00000F02CF80AA090E8000C82448344AAF196
:100100000107DA4501D100F021F8AFF2090EBAE893
:100110000F0013F0010F18BFFB1A43F0010318473B
:1001200020050000300500000023002400250026E3
:10013000103A28BF78C1FBD8520728BF30C148BF4A
:100140000B6070471FB51FBD10B510BD00F031F832
:100150001146FFF7F7FF00F043FA00F04FF803B441
:10016000FFF7F2FF03BC00F057F800000948804792
:1001700009480047FEE7FEE7FEE7FEE7FEE7FEE789
:10018000FEE7FEE7FEE7FEE704480549054A064BA1
:10019000704700005D050008ED00000860000020C9
:1001A0006006002060020020600200207047704757
:1001B0007047754600F02CF8AE4605006946534678
:1001C00020F00700854618B020B5FFF7DDFFBDE839
:1001D00020404FF000064FF000074FF000084FF0AE
:1001E000000B21F00701AC46ACE8C009ACE8C0093F
:1001F000ACE8C009ACE8C0098D46704710B50446AC
:10020000AFF300802046BDE81040FFF7A8BF000014
:10021000004870470000002001491820ABBEFEE7EF
:10022000260002007047000001461D48814204D1AB
:100230001C488069C0F3800070471B48814204D18C
:1002400018488069C0F3C000F6E71848814204D11D
:1002500014488069C0F30010EEE71548814204D1CC
:1002600010488069C0F34010E6E71248814204D18B
:100270000C488069C0F38010DEE70F48814204D14A
:1002800008488069C0F3C010D6E70C48814204D109
:1002900004488069C0F30020CEE70020CCE70000CE
:1002A0000008014000100240000C01400010014015
:1002B0000014014000180140001C014000200140D2
:1002C0002DE9F04105460C46174698460F2C02D9F9
:1002D0000020BDE8F0812846FFF7A6FF18B90121EC
:1002E000284600F029F8B8F1000F10D1022F05D1EF
:1002F000E8680121A1408843E86008E0032F06D1A7
:1003000027F00107E8680121A1400843E860082CB4
:1003100001D22E4601E0083C2E1D3068A2000F21BC
:1003200091408843306048EA8700A10088403168E6
:10033000084330600120CCE7002945D0454A90426F
:1003400006D1454A926942F00402434B9A6180E02B
:10035000424A904206D1404A926942F008023E4B1E
:100360009A6176E03E4A904206D13B4A926942F059
:100370001002394B9A616CE03A4A904206D1364AF3
:10038000926942F02002344B9A6162E0364A904210
:1003900006D1314A926942F040022F4B9A6158E0EF
:1003A000324A904206D12C4A926942F080022A4B8E
:1003B0009A614EE02E4A90424BD1274A926942F40C
:1003C0008072254B9A6144E0224A904206D1224A2B
:1003D000926922F00402204B9A613AE01F4A90424F
:1003E00006D11D4A926922F008021B4B9A6130E047
:1003F0001B4A904206D1184A926922F01002164B0D
:100400009A6126E0174A904206D1134A926922F077
:100410002002114B9A611CE0134A904206D10E4A09
:10042000926922F040020C4B9A6112E00F4A90420E
:1004300006D1094A926922F08002074B9A6108E0CE
:100440000B4A904205D1044A926922F48072024B11
:100450009A6170470008014000100240000C014002
:10046000001001400014014000180140001C014030
:100470000020014010B500F001F810BD0CB50020BF
:10048000019000903348006840F4803031490860A2
:1004900000BF3048006800F4003000900198401C14
:1004A0000190009818B90198B0F5A06FF1D12948D2
:1004B000006800F4003010B10120009001E000203D
:1004C00000900098012843D12348006840F01000B4
:1004D000214908600846006820F0030008600846CB
:1004E000006840F0020008601A48406819494860F6
:1004F0000846406848600846406840F480604860AC
:100500000846406820F47C1048600846406840F483
:10051000E81048600846006840F08070086000BF3E
:100520000C48006800F000700028F9D009484068C5
:1005300020F00300074948600846406840F0020088
:10054000486000BF0348406800F00C000828F9D15B
:100550000CBD0000001002400020024010B51348FE
:10056000006840F0010011490860084640681049E1
:1005700008400E494860084600680E4908400B498B
:1005800008600846006820F480200860084640683B
:1005900020F4FE0048604FF41F008860FFF76AFFF8
:1005A0004FF000600449086010BD000000100240D8
:1005B0000000FFF8FFFFF6FE08ED00E008B5014679
:1005C000002009E00022009202E0009A521C0092F2
:1005D000009A8242F9D3401C8842F3D308BD000040
:1005E000012300220D211548FFF76AFE25E00D20AA
:1005F000002121B101228240104B1A6105E000F177
:100600001002012393400D4A136100BF4FF4FA70AA
:10061000FFF7D4FF0D20002121B101228240074BBA
:100620001A6105E000F1100201239340034A1361AF
:1006300000BF4FF4FA70FFF7C1FFD8E70010014088
:100640005006000800000020600600002801000895
:040000050800016D81
:00000001FF
